:1000000004308A00D72C0000FF00030E8301A100FA
:100010000A08A0008A010408A2007708A300780853
:10002000A4007908A5007A08A60003170D08031399
:10003000A70003170F080313A80003170C080313E6
:10004000A90003170E080313AA00831383128B1E43
:100050002B280B194C28220884002308F7002408B9
:10006000F8002508F9002608FA00270803178D0074
:100070000313280803178F000313290803178C00A4
:1000800003132A0803178E00031320088A00210E89
:100090008300FF0E7F0E09008A110A1257280A10EA
:1000A0008A100A11820728340F3401340634B21B37
:1000B0006A2842083202031C6A28031D632841088B
:1000C0003102031C6A28C312430883168700831277
:1000D00087167028C312430883168700831287127D
:1000E000C10A0319C20AC208031D7A284108123C3A
:1000F00003187C28C201C1010B118A110A122B2896
:100100000C296533BD124C32AC227239BD124C320F
:100110008A06D4326D38BD124C322C386932BD1289
:100120004C3200004E308400831300080319A528C8
:100130000630F800F701F70B9B28F80B9A287B3064
:10014000F700F70BA128800B982808005518AA285B
:100150000812AB280816831608128312D518B22885
:100160008812B32888168316881283125519BA2864
:100170000813BB280817831608138312D519C22841
:100180008813C3288817831688138910831289144B
:1001900083168910831289100800831609118312AF
:1001A0000911D208031DD6280911D728091583166D
:1001B0000911A630F700F70BDB2800008910831225
:1001C0008910530ED4000F30D4055408D500A62052
:1001D00053080F39D400D500A62008008316081252
:1001E000831208128316881283128812831608134A
:1001F0008312081383168813831288138316091138
:100200008312091183168910831289100F30CE00D2
:1002100092200130C4004408033C031C172903301A
:10022000D500A6200530CE009220C40A0B2902304A
:10023000D500A620C4014408033C031C2829440817
:100240004F20C500D2014508D300CD20C40A1B2988
:100250008A110A12132D8E30F7004708F80046085D
:10026000F900FA01F808031D3F297908F800F9019F
:100270000830F702F808031D3F29F701472903104A
:10028000F81B4629F90DF80DF7033F29F8138A11D9
:100290000A12592D46080319BA29CE004A08031933
:1002A000BA29CE0703185B297F30CE02031CBA2976
:1002B0000319BA295F298130CE070318BA294E08DD
:1002C000F700F801F901FA014708D200D2174808EF
:1002D000D1004908D0001830CE00CF01501C882929
:1002E0004D08FA07031C7A29F90A031D7A29F80A2E
:1002F0000319CF174C08F907031C8129F80A0319C1
:10030000CF174B08C800C8174808F8070318CF17BD
:10031000CF0DF80CF90CFA0CD20CD10CD00C031048
:10032000CE0B6D290130F7070318BA29F81B9F2956
:10033000D20DFA0DF90DF80DF7030319BA29D21FE2
:10034000B029FA0A031DB029F90A031DB029F80AD9
:10035000031DB029F80CF90CFA0CF70A0319BA2995
:100360004708CF004B08CF06CF1FB829F817BE2982
:10037000F813BE29F701F801F901FA018A110A12EE
:100380006A2D80308318CD06D201D3014908D100EF
:100390004D08D10648080319B12AD000F7004C08CF
:1003A0000319BA2AD0020319562A031C142A4D082D
:1003B000D600D6174E08D5004F08D400D30103103D
:1003C000D60CD50CD40CD30CD00BDE29D11FEB29C5
:1003D0005214CE2A5210501052164B308400831300
:1003E000E32A5212D11BFE29501C092AD60CD50C27
:1003F000D40CD30CF70A0319C92A092AD61B0C2AD4
:100400000310D30DD40DD50DD60DF7030319C92A4A
:10041000FE295217762A52134908D100D11F122AF9
:10042000D617C22AD613C22A4C08D000F7004808B3
:10043000D0024908D600D6174A08D5004B08D40088
:10044000D3010310D60CD50CD40CD30CD00B202A1E
:10045000D11F2D2AD214CE2AD2105010D2164F30CE
:1004600084008313E32AD212D11B402A501C4B2A4A
:10047000D60CD50CD40CD30CF70A0319C92A4B2A75
:10048000D61B4E2A0310D30DD40DD50DD60DF70370
:100490000319C92A402AD217762AD2134D08D1004F
:1004A000D11F542AD617C22AD613C22A4D08D60005
:1004B000D6174E08D5004F08D400D11F632AD61393
:1004C0005215CE2A5211D30150104B3084008313A1
:1004D000E32AD11B8C2A4908D100501C762AD60C5D
:1004E000D50CD40CD30CF70A0319C92AD31F872AB9
:1004F000D40A031D872AD50A031D872AD60A031D9D
:10050000872AD60CD50CD40CF70A0319C92A521B1A
:100510000B2AD21B4D2AAB2A8030D606D61F942A2E
:10052000CE2A4D08D100A12A4908D100D608031DC2
:10053000A12AD508031DA12AD408031DA12AF70169
:10054000C22AD61BAB2A0310D30DD40DD50DD60D60
:10055000F70BA12AC92AD11FAF2AD617C22AD61350
:10056000C22A4C08F7004D08D6004E08D5004F08A7
:10057000D400C22A4808F7004908D6004A08D50026
:100580004B08D4005608F8005508F9005408FA0042
:10059000012BF701F801F901FA01012BD301D4096C
:1005A000D509D609D309D30A031DDC2AD40A031DB1
:1005B000DC2AD50A0319D60A5218EA29D2182C2A9D
:1005C0005219622A912A0008D407031CED2AD50A81
:1005D000031DED2AD60A0319501484030008D50719
:1005E000031CF52AD60A0319501484030008801F3F
:1005F000803AD60703185014521AF129D21A332A16
:10060000692A8A110A12822D8E30F7004408F702F7
:100610004508F9004608F800F917F70803191B2BDD
:100620000310F908031D172BF80803191B2BF90CED
:10063000F80CF70B102BC51F222BF809F909F80A43
:100640000319F90A8A110A128B2D470849068039C5
:10065000CB00C71F302BC609C709C60A0319C70A32
:10066000C91F372BC809C909C80A0319C90A10309C
:10067000CA00F701FA01C70CC60C031C452B480839
:10068000F7070318FA0A4908FA07FA0CF70CF90CED
:10069000F80CCA0B3B2BCB1F522BF809F909F80AAF
:1006A0000319F90A08004D080C3A0319612B063AA0
:1006B0000319692B073A0319692B053A03197F2B94
:1006C000842BD2010130D300CD200230CE00922005
:1006D000892B0130CE000230CF004F0B702B732BD3
:1006E0004030D000742BD00101304E02D0075008AA
:1006F0008038D100D2015108D300CD20892BD201FE
:100700001030D300CD20892B0130D2004D08D3000A
:10071000CD2008000B08C5008B13831603178C1718
:100720000C140000000083120313C51B8B17031861
:10073000C12B03170C087F390313C50003170D08DD
:100740000313C60003170F080313C7004508CD00A5
:100750005323460803178D000313470803178F0020
:1007600003130B08C8008B13831603178C170C1484
:100770000000000083120313C81B8B17C40BC12B8E
:10078000E02B03170C0D0E0D7F390313C500031763
:100790000D080313C60003170F080313C70045080D
:1007A000CD005323460803178D0003134708031792
:1007B0008F008D0A03198F0A03100313C40B8A2BB1
:1007C0000800CC010408CB004C10831B4C14C51F3F
:1007D000F12BCB174B1ECB0AC409C509C40A031958
:1007E000C50A450EF038C700C707E23EC800323ED2
:1007F000CA0045080F39C807C807CA07E93EC9003B
:10080000C907C907440E0F39C907CA07C90DCA0D60
:10081000CA09CA0D44080F39CA07C70D0730C600F8
:100820000A30CA07C903031C112CC907C803031CDB
:10083000152CC807C703031C192CC707C603031CC4
:100840001D2C46308400831307304B054B13840363
:100850004B05031D322C4B1A840A4B1A322C2030C4
:10086000F7004F2C84074A30040203194B17000885
:10087000F700031D432C4B1B432C4B1A5D2CCB194B
:10088000432C20304E2CCB1F4B2C2D30F7008403F3
:100890004B13CB134F2CCB154B123030F707C50140
:1008A0000408C4004510831B45147708CD0053236A
:1008B00044088400831345188317840A4B1F332C84
:1008C0000800CC010408CB004C10831B4C14C51F3E
:1008D000712CCB174B1ECB0AC409C509C40A0319D6
:1008E000C50A450EF038C700C707E23EC800323ED1
:1008F000CA0045080F39C807C807CA07E93EC9003A
:10090000C907C907440E0F39C907CA07C90DCA0D5F
:10091000CA09CA0D44080F39CA07C70D0730C600F7
:100920000A30CA07C903031C912CC907C803031C5A
:10093000952CC807C703031C992CC707C603031CC3
:100940009D2C46308400831307304B054B138403E2
:100950004B05031DB22C4B1A840A4B1AB22C2030C3
:10096000F700CF2C84074A30040203194B17000804
:10097000F700031DC32C4B1BC32C4B1AD32CCB19D4
:10098000C32C2030CE2CCB1FCB2C2D30F700840372
:100990004B13CB13CF2CCB154B123030F707770806
:1009A0000C1ED02C9900840A4B1FB32C080003089E
:1009B0001F398300813083169900A630980090304B
:1009C00083129800AC01AB01AE01AD01B001AF01E3
:1009D000B201B101B401B301B601B501B801B7016B
:1009E000BA01B901BC010330BB00BE010130BD003A
:1009F000C001BF00C201C101FF30C30083161F1434
:100A00009F141F159F1107309C0083131F109F1404
:100A10001F119F111F1783121F179F1383169F17F4
:100A200083121F14EE281030F700F70B152D00006D
:100A300083160108C739083881000030F8000638ED
:100A4000831292009B308316920083124311430855
:100A500083168700831207110C309700C3104308D8
:100A600083168700831287100C309D007F3095001D
:100A70001708CF39203897008B16C0308B04003010
:100A8000F8001F08C73978049F001030F700F70BF3
:100A9000472D00001F151F194B2D1E08FA00831645
:100AA0001E088312C4001E08C500C7004408C60003
:100AB0002B297A08C9007908C8007808C700770888
:100AC000C600A630CD009B30CC004430CB007A303D
:100AD000CA004A297A08C7007908C6007808C50004
:100AE0007708C40083107A08CB007908CA00780818
:100AF000C9007708C800CF01CE016030CD00833037
:100B0000CC00C1297A08C7007908C6007808C5005A
:100B10007708C400042B7908AE007808AD001030C7
:100B2000F8001F08C73978049F001030F700F70B52
:100B3000972D00001F151F199B2D83161E08831269
:100B4000C40003101E0CFA00440CF900AB007A0834
:100B5000AC000830F8001F08C73978049F00103037
:100B6000F700F70BB12D00001F151F19B52D8316C7
:100B70001E088312C4001E08C500C50CC40CC50C99
:100B8000C40CC50C44089500C50C450C3039F70061
:100B90001708CF39770497001030F700F70BCE2DE8
:100BA00000002B082D02B3002E08B4002C08031CF3
:100BB0002C0FB4023C08C7003B08C6003408C9002B
:100BC0003308C80025237908B6007808B500340832
:100BD000C7003308C6003E08C9003D08C8002523E9
:100BE0007808B70779080318790FB8072B082F0280
:100BF000C4003008C5002C08031C2C0FC502450892
:100C0000C7004408C6004008C9003F08C8002523A3
:100C10007908BA007808B9002C08B0002B08AF009A
:100C200037083507C4003608C50038080318380FE0
:100C3000C50739084407B1004508B2003A0803184F
:100C40003A0FB2073208F9003108F800F90CF80C35
:100C5000F90CF80CF90C78089B00F90C790C303978
:100C6000F7001D08CF3977049D00803003178D00F1
:100C700000308F00031005300313C4008A231030A6
:100C800084002E08C5002D08C400E123843003171A
:100C90008D0000308F00031005300313C4008A2339
:100CA000103084003408C5003308C400E1238830C4
:100CB00003178D0000308F00031007300313C400AA
:100CC0008A23103084002C08C5002B08C400E123BF
:100CD0008D3003178D0000308F0003100530031393
:100CE000C4008A23103084003208C5003108C400D3
:100CF000E123103084002E08C5002D08C4006124B3
:100D000020300C1E812E9900103084002C08C50064
:100D10002B08C400612420300C1E8C2E990010304A
:100D200084003408C5003308C40061240A300C1E56
:0E0D3000972E99000A30CE0092203F2D6300CE
:02400E00323F3F
:00000001FF
;PIC16F877A
;CRC=A63C  CREATED="10-jul-21 16:38"
